{
  "_format": "hh-sol-artifact-1",
  "contractName": "SimpleWallet",
  "sourceName": "contracts/SimpleWallet.sol",
  "abi": [
    {
      "inputs": [
        {
          "internalType": "address",
          "name": "account",
          "type": "address"
        }
      ],
      "name": "balanceOf",
      "outputs": [
        {
          "internalType": "uint256",
          "name": "",
          "type": "uint256"
        }
      ],
      "stateMutability": "view",
      "type": "function"
    },
    {
      "inputs": [],
      "name": "deposit",
      "outputs": [],
      "stateMutability": "payable",
      "type": "function"
    },
    {
      "inputs": [
        {
          "internalType": "address",
          "name": "recipient",
          "type": "address"
        },
        {
          "internalType": "uint256",
          "name": "amount",
          "type": "uint256"
        }
      ],
      "name": "transfer",
      "outputs": [],
      "stateMutability": "nonpayable",
      "type": "function"
    }
  ],
  "bytecode": "0x608060405234801561001057600080fd5b506104f1806100206000396000f3fe6080604052600436106100345760003560e01c806370a0823114610039578063a9059cbb14610076578063d0e30db01461009f575b600080fd5b34801561004557600080fd5b50610060600480360381019061005b91906102da565b6100a9565b60405161006d9190610320565b60405180910390f35b34801561008257600080fd5b5061009d60048036038101906100989190610367565b6100f1565b005b6100a7610220565b005b60008060008373ffffffffffffffffffffffffffffffffffffffff1673ffffffffffffffffffffffffffffffffffffffff168152602001908152602001600020549050919050565b806000803373ffffffffffffffffffffffffffffffffffffffff1673ffffffffffffffffffffffffffffffffffffffff168152602001908152602001600020541015610172576040517f08c379a000000000000000000000000000000000000000000000000000000000815260040161016990610404565b60405180910390fd5b806000803373ffffffffffffffffffffffffffffffffffffffff1673ffffffffffffffffffffffffffffffffffffffff16815260200190815260200160002060008282546101c09190610453565b92505081905550806000808473ffffffffffffffffffffffffffffffffffffffff1673ffffffffffffffffffffffffffffffffffffffff16815260200190815260200160002060008282546102159190610487565b925050819055505050565b346000803373ffffffffffffffffffffffffffffffffffffffff1673ffffffffffffffffffffffffffffffffffffffff168152602001908152602001600020600082825461026e9190610487565b92505081905550565b600080fd5b600073ffffffffffffffffffffffffffffffffffffffff82169050919050565b60006102a78261027c565b9050919050565b6102b78161029c565b81146102c257600080fd5b50565b6000813590506102d4816102ae565b92915050565b6000602082840312156102f0576102ef610277565b5b60006102fe848285016102c5565b91505092915050565b6000819050919050565b61031a81610307565b82525050565b60006020820190506103356000830184610311565b92915050565b61034481610307565b811461034f57600080fd5b50565b6000813590506103618161033b565b92915050565b6000806040838503121561037e5761037d610277565b5b600061038c858286016102c5565b925050602061039d85828601610352565b9150509250929050565b600082825260208201905092915050565b7f496e73756666696369656e742062616c616e6365000000000000000000000000600082015250565b60006103ee6014836103a7565b91506103f9826103b8565b602082019050919050565b6000602082019050818103600083015261041d816103e1565b9050919050565b7f4e487b7100000000000000000000000000000000000000000000000000000000600052601160045260246000fd5b600061045e82610307565b915061046983610307565b925082820390508181111561048157610480610424565b5b92915050565b600061049282610307565b915061049d83610307565b92508282019050808211156104b5576104b4610424565b5b9291505056fea26469706673582212200ad3688ef38c04662d5d08481ee3ec18381cd716724bb7f1d3c1a6e342bfe12d64736f6c63430008110033",
  "linkReferences": {},
  "deployedLinkReferences": {}
}